:10000000E01A0020C52300005F5B0000F52300001C
:10001000F5230000F5230000F52300000000000098
:10002000000000000000000000000000612100004E
:10003000F5230000000000000D210000435B0000DC
:100040008523000085230000852300008523000010
:100050008523000085230000852300008523000000
:1000600085230000852300008523000085230000F0
:1000700085230000852300008523000085230000E0
:1000800085230000852300008523000085230000D0
:1000900085230000852300008523000085230000C0
:1000A00085230000852300008523000085230000B0
:1000B00085230000852300008523000085230000A0
:1000C0008523000085230000852300008523000090
:1000D0008523000085230000852300008523000080
:1000E0008523000085230000852300008523000070
:1000F0008523000085230000852300008523000060
:1001000053B94AB9002908BF00281CBF4FF0FF317E
:100110004FF0FF3000F06CB9ADF1080C6DE904CE82
:1001200000F006F8DDF804E0DDE9022304B07047D2
:100130002DE9F047089E0D4604468E46002B40F000
:1001400082808A42174646D9B2FA82F24AB1C2F197
:10015000200105FA02F320FA01F1974041EA030E6B
:1001600094404FEA1748230CBEFBF8FCB9B208FBD9
:100170001CEE43EA0E430CFB01F098420AD9FB182F
:100180000CF1FF3580F01681984240F21381ACF1FA
:10019000020C3B441B1AA4B2B3FBF8F008FB10336B
:1001A00044EA034400FB01F1A14209D93C1900F1E2
:1001B000FF3380F00181A14240F2FE8002383C44CE
:1001C000641A40EA0C4000211EB1D4400023C6E965
:1001D0000043BDE8F08702B9FFDEB2FA82F2002ADE
:1001E0004FD1CB1B4FEA174E1FFA87F80121B3FB03
:1001F000FEFC250C0EFB1C3345EA034508FB0CF303
:10020000AB4207D97D190CF1FF3002D2AB4200F2AC
:10021000E7808446ED1AA3B2B5FBFEF00EFB105545
:1002200043EA054408FB00F8A04507D93C1900F152
:10023000FF3302D2A04500F2D7801846A4EB080491
:1002400040EA0C40C0E78B4208D9002E00F0AF8096
:100250000021C6E900050846BDE8F087B3FA83F13E
:1002600000294BD1AB4202D3824200F2B780841AFC
:1002700065EB030301209E46002EAAD0C6E9004E7E
:10028000A7E7C2F1200C01FA02F3974020FA0CF024
:100290004FEA174E21FA0CFC1843BCFBFEF1050C8B
:1002A0000EFB11CC1FFA87F845EA0C4501FB08F359
:1002B000AB4204FA02F409D97D1901F1FF3C80F048
:1002C0008B80AB4240F2888002393D44EB1A85B204
:1002D000B3FBFEF00EFB103345EA034500FB08F3C9
:1002E000AB4207D97D1900F1FF3C71D2AB426FD907
:1002F00002383D44EB1A40EA014178E7C1F1200C95
:100300008B4022FA0CF71F4320FA0CF405FA01F394
:100310004FEA174E25FA0CF51C43230CB5FBFEF9EA
:100320001FFA87F80EFB195543EA054509FB08FA41
:10033000AA4502FA01F200FA01F308D97D1909F180
:10034000FF3047D2AA4545D9A9F102093D44A5EBA2
:100350000A05A4B2B5FBFEF00EFB105544EA0544B5
:1003600000FB08F8A04507D93C1900F1FF352DD254
:10037000A0452BD902383C4440EA0940A4EB0804CC
:10038000A0FB02894C45C6464D4619D316D05EB136
:10039000B3EB0E0264EB050404FA0CFCCA404CEA11
:1003A0000202CC40C6E900240021BDE8F0873146B6
:1003B00030460EE7AC46EDE6184601E74345E6D287
:1003C000B8EB020E69EB07050138E0E72846D3E7F2
:1003D00060468FE78146BAE7614677E708464BE714
:1003E000ACF1020C3D4415E702383C4426E700BF5F
:1003F000704700BF08B50A490A4804F0D7FD0A490A
:100400000A4B0B48C91AC908890141F0030105F0DC
:100410001DF84FF0FF314FF0FF3004F065F8F8E7BA
:100420003469000047690000B8650000806500007D
:100430005869000070B506461D481E4C04F07BFD4F
:100440001D4804F078FD1D4B1D48E41AE408A40182
:1004500044F0030104F0FAFF1A481B4D03F034FA8C
:10046000286020B9194844F0010104F0EFFF286822
:10047000836823B19B6C13B10022314698472868EA
:1004800083689B6A03B19847286883681B6B4BB9E4
:100490000F4844F0010104F0D9FF286804F046FD3C
:1004A000002070BD984710F0FF0FF6D0F0E700BFB6
:1004B000530D002098650000500B0020806500005F
:1004C000726900007B690000380400208269000026
:1004D0009E69000013B5044683685B6C03B19847BE
:1004E000A3685B6A3BB12046984720B1A3681B6BA9
:1004F0000BB120469847A3685B6B7BB120469847B9
:1005000060B1A3689B6923B101220DF10701204668
:1005100098479DF80710024804F048FD02B010BD4E
:10052000C269000008B50A490A4B0B48C91AC90834
:10053000890141F0030104F089FF0848FFF77AFFC1
:100540004FF0FF314FF0FF3003F0CEFFF8E700BF70
:100550008065000080650000C5690000D5040000CA
:100560000B6801330B60014B1B681847000000202B
:10057000014B1860704700BF0000002007B50B4614
:10058000002102460191034801A900F0FFF803B0E1
:100590005DF804FB6105000030B585B0CDE90101CF
:1005A0000446002501A90548039500F0EFF8DDE9B0
:1005B00002309842B8BF255405B030BD874F0000C7
:1005C0002DE9F84FB0F8189019F008080446934642
:1005D0000DD001290CBF49F0100949F02009A0F8FD
:1005E00018908BF31188BFF36F8FBDE8F88F09F077
:1005F0000709022907D1204604F0F2FC0028F0D0B8
:100600000128238B50D16769218B002F15DA2568CB
:1006100021F00701C4E9008841F00101218300268F
:10062000218B01F0070ACA4502D0A368002B5CD1D8
:100630000DB9002E74D0002358E001F007035A1FB3
:10064000012A20D821F00701062B256889B2C4E9C8
:1006500000880CD1002D2B4638BF00232BB1628BB4
:100660001B6801326283002BF8D141F00201218323
:10067000204604F0B5FC06460028D1D0238B43F079
:1006800020032383CBE7042B0CD121F0070189B28F
:100690002183204604F0A4FC05460028BFD041F089
:1006A000200121830025BAE7032809D1226923F01C
:1006B0000703166843F00603238300252F46AFE7A0
:1006C000042806D1226923F00703566843F0040387
:1006D000F2E7052806D1226923F00703966843F064
:1006E0000503E9E700252E46E8E7012341F008016C
:1006F00021838BF31188BFF36F8F03BB002D33D1A0
:1007000016B121492046B0474FF02003EFF3118B7B
:1007100083F31188BFF36F8F238B23F008032383A8
:10072000238BDA0628D523F0100323830121B4F8A4
:10073000189009F0070900297FF45BAF51E7A16821
:100740000029DBD00B68D1F804B0002B38BF0023A0
:10075000994652463B462046D847B9F1000FCDD0C6
:10076000D9F800304946EEE729463B465246204636
:100770002D6804F051FCC1E713F020011EBF23F0E7
:10078000200323830221D2E7455000002DE9F04FDA
:1007900091B08B46029092461C4600259AF80000C4
:1007A00008B928465EE325280AF1010707D0029B15
:1007B000594698470028C0F25583013510E21822A7
:1007C00000210AA805F02CFA9AF80130252B78D0E0
:1007D00000229446164696461046394617F8013BC5
:1007E0002B2B00F09D8000F29480202B00F09B804A
:1007F000232B00F09A8028B19DF8300040F00400CF
:100800008DF83000BEF1000F05D09DF8300040F0AB
:1008100008008DF830002EB19DF8300040F0100037
:100820008DF83000BCF1000F05D09DF8300040F08D
:1008300020008DF830002AB19DF8302042F04002AF
:100840008DF830209DF8302002F04400442803D178
:100850006FF386128DF830209DF830202A2B42F05D
:1008600080028DF830207BD19DF8312042F00102CA
:100870004B1C8DF831201A782E2A9DF831200CBFA0
:100880000121002161F341028DF8312074D15A78A1
:100890002A2A6AD0013300210A26184610F8012BB3
:1008A000A2F13007092F40F28E809DF830200E9182
:1008B000C2F3400040EAD17161F341028DF830206B
:1008C0005AE00AF102078DF833309DF83130D9072C
:1008D00040F1498154F8049BB9F1000F07DA9DF803
:1008E000302042F004028DF83020C9F100095A0787
:1008F00040F1428154F8048BB8F1000F80F241813D
:100900009DF831306FF341038DF831304FF0FF38EF
:1009100037E12D2B0CD0302B7FF46DAF01225CE73B
:100920004FF0010E59E7012657E74FF0010C54E74D
:10093000012052E70CFB0202303A33461E4616F8FD
:10094000010BA0F13007092FF4D9994293D09DF8FB
:1009500030100D92D20F62F341018DF830108AE70A
:100960000B4600224FF00A0CE8E79DF8312042F0D8
:1009700004028DF8312002331F4617F8012B6C2A30
:1009800041D025D8682A2BD06A2A46D04C2A4CD090
:100990001F4617F8012B9DF831308DF83320782A47
:1009A00000F2D980572A4DD8412A03D0453A022A6D
:1009B00000F2D1809DF83230042262F302038DF8F8
:1009C000323001239EE006FB01213039034664E703
:1009D000742A26D07A2ADBD19DF8313006220DE028
:1009E0005A78682A9DF8312006D1012161F3C602A8
:1009F0008DF831209F1CCCE71346022262F3C60318
:100A00008DF83130C5E75A786C2A9DF8312001D134
:100A10000421EBE713460322F0E79DF8313005226D
:100A2000ECE79DF831300722E8E7BDF8303023F4D9
:100A3000F04323F0020343F4804343F00203ADF894
:100A40003030A6E7A2F15801202900F2848001A0ED
:100A500050F821F0190B0000570B0000570B000055
:100A6000570B0000570B0000570B0000570B0000FE
:100A7000570B0000570B0000B5090000570B000092
:100A8000190B0000D90A0000B5090000B5090000E3
:100A9000B5090000570B0000D90A0000570B0000F1
:100AA000570B0000570B0000570B0000210B0000F4
:100AB000190B00003D0B0000570B0000570B000006
:100AC0003D0B0000570B0000190B0000570B0000F6
:100AD000570B0000190B00009DF83210012003F0A5
:100AE000780360F30201402B8DF8321002BF9DF8AD
:100AF000301041F001018DF83010632A31D1003BF4
:100B000018BF01239DF83020C2F340010B4363F36B
:100B100041028DF83020D8E69DF832100220DEE741
:100B20009DF8322003F07803A3F14000032161F324
:100B3000020243428DF832204341E3E79DF8322020
:100B4000032113F0780F61F302028DF8322014BFF5
:100B500001230023D6E79DF8303043F001038DF8E0
:100B600030300023CEE79DF93020002AB4BFDDF8F5
:100B700034904FF0FF39BAE69B077FF5C7AEDDF83A
:100B800038809DF831200023CDE90D339DF83230B7
:100B900003F00703012BC2F3C30236D1D31E042B8B
:100BA00020D8DFE803F00307071F1F0054F8040BE9
:100BB000C11704E0073424F00704F4E80201CDE98A
:100BC0000A019DF8303013F0030654D002983B46DA
:100BD0005246594604F0E0FB0028C0F24381054428
:100BE000BA46DBE554F8040B012A4FEAE071CDE97F
:100BF0000A0105D19DF828300A9300230B93E0E702
:100C0000022ADED1BDF92800D2E7022B23D1D31E60
:100C1000042B13D8DFE803F0030A0A12120020683D
:100C20000A900021231D0B911C46CAE7073424F0CB
:100C30000703F3E80201CDE90A01F5E754F8043BA4
:100C40000A93012A4FF000030B93D3D0022AB8D1A4
:100C5000BDF82830D0E7042B07D1073424F007046F
:100C6000F4E80201CDE90A01ABE7032B04BF54F815
:100C7000043B0A93A5E79DF833007828B0D8622892
:100C800022D825283FF493AD5828A9D10DF1260389
:100C90000093DDE90A0104AB0CAA04F032FB8246A2
:100CA000B8F1000F0DF126000CDB9DF83020A0EB11
:100CB0000A036FF3861298458DF8302002D9A8EB0D
:100CC00003030D9380463DE06338152888D801A1C1
:100CD00051F820F0550D0000B90D0000E10B0000A7
:100CE000E10B0000E10B0000E10B0000B90D00007A
:100CF000E10B0000E10B0000E10B0000E10B000044
:100D0000170E0000E50D0000E90D0000E10B0000EA
:100D1000E10B00002D0D0000E10B0000E50D0000CF
:100D2000E10B0000E10B0000E50D0000B8F1000F41
:100D3000DDF828A00ADB4146504604F031FF0AEBFB
:100D400000080026BAF1000F0CD149E7504604F024
:100D500020FFF4E70A9B8DF8103000260DF11108F2
:100D60000DF1100AA8EB0A0306B101339DF83220F9
:100D7000D0066BD5023352060D9948BF0E9A0B442C
:100D800048BF9B18B9F1000F79DD9DF83020A9EB21
:100D90000309C2F380030393530770D4500664D54C
:100DA00046B1029B59463046984700285ADB039BC0
:100DB00001351E46302359E01E0711D413F01006EA
:100DC00018BF2026DDE90A23002A73F10001BFF6CF
:100DD0005DAF524263EB4303CDE90A232D2655E76D
:100DE0002B26EFE7002651E70A9848B30DF12603BA
:100DF00000930CAA04AB002104F083FABDF8323052
:100E000003F0EF0343F4F04343F010038246ADF8E0
:100E10003230002644E70A9B072A3FF6E1AEDFE8BE
:100E200002F00D04060D08080D0D1D70D8E61D809A
:100E3000D6E62846E917C3E90001D1E61D60CFE6F2
:100E4000DFF8C4800646A8F1050A8BE7110748BF02
:100E5000013390E7184603935946029B98470028B0
:100E6000039B04DA11B0BDE8F08F20234D444A46BD
:100E7000002AA5EB090109F1FF39EBDC0D4636B17B
:100E8000029B5946304698470028EBDB01359DF818
:100E90003230D90601D41A0706D5029B59463020B4
:100EA00098470028DEDB01359DF83230DB0607D598
:100EB0009DF83300029B594698470028D2DB013544
:100EC0000D9E2E44731B002B16DC0298434652469F
:100ED000594604F061FA0028C4DB0544A944A9EB93
:100EE0000503002B7FF77CAE029B594620209847D4
:100EF0000028B7DB0135F2E7029B594630209847BE
:100F00000028AFDB0135DDE7EF69000030B510499F
:100F1000104889B0002205F0FFF90F4D0F4900225B
:100F20000023CDE9062300240E23CDE90334CDE9C7
:100F300001440B4B00944FF44072284603F078FBB9
:100F40000849284605F09FF9204609B030BD00BF8A
:100F5000690F000078020020B0020020C0130020BA
:100F600089130000F0690000014803F0E5BA00BFF2
:100F7000E401002008B500F069FA094804F023FAFA
:100F800004234FF402720749074805F084F8074B21
:100F9000074A1A604FF40040BDE8084000F09EBCCC
:100FA0004804002080240020500400200400002079
:100FB00005540000F8B50F4BBFF35B8F002553E8D5
:100FC000007F43E80052002AF9D1BFF35B8F0A4C3F
:100FD0000A4E361B3611B54200DBF8BD63685B79FB
:100FE0002BB12368DB6813B1394620469847013599
:100FF0001034F0E740040020E8650000F8650000C8
:10100000064BBFF35B8F53E8002F013243E800210A
:101010000029F8D1BFF35B8F704700BF4004002068
:10102000044A054B9B1AB1EBD30F34BF52F8310081
:101030000020704780650000E8650000094B4268A9
:10104000C31A1B11013310B513714368064C1960A4
:1010500001225A71227812B9044803F06DFA012373
:10106000237010BDE8650000560F0020E401002049
:1010700070B5114BBFF35B8F53E8005F6A1C43E808
:1010800000210029F8D1BFF35B8F2DB90B4C0C4E1A
:10109000361B3611B54200DB70BD237B43B123689C
:1010A0005B6903B19847042200212046FFF7C6FF81
:1010B00001351034EEE700BF44040020E86500006D
:1010C000F8650000174B984237B5044602D3164B1B
:1010D000984221D315480022002301A902F074FD93
:1010E0000546E0B90122019BBFF35B8F53E8001F67
:1010F00043E800200028F9D1BFF35B8F0198214617
:1011000040F2FF12043004F031FD019C7E2384F88C
:10111000033284F804520434204603B030BD044C3A
:10112000FAE700BF90630000C47200005004002082
:10113000F869000050B1064B984206D303F50263EC
:1011400098422CBF0020012070470020704700BF4C
:10115000802400202DE9F04F4C4B1B7885B00446CD
:1011600003B960B34FF02003EFF3118683F31188C6
:10117000BFF36F8F464804F036F9054686F31188B1
:10118000BFF36F8F78B1BFF35B8F424B53E8002FF3
:10119000013A43E800210029F8D1BFF35B8F94B1F5
:1011A000284604F039FA24B93B4B1B680BB1FFF712
:1011B00001FF374804F015F9041E18BF012420462A
:1011C00005B0BDE8F08F354B1B78CBB92B7ADB0728
:1011D00016D404F034FA8046284604F0FBF90146A0
:1011E000404604F013F92E4F2E4BDFF8D4B0DB1B32
:1011F000DB0803932C4BDB1B06464FEAD30A36B9B8
:101200002A4E2B4FBF1B3F114FF000083AE0B6FAB1
:1012100086F1C1F11F094946284604F0DEF9254B45
:101220009842014602D3244B98421AD30846FFF74E
:1012300081FF0246A8B9214B994212D06B890399CC
:10124000C3F389138B4238BF57F833204FEA8A1310
:1012500043F00103ADF8003049464346584604F0D8
:101260002FF9012101FA09F126EA0106C7E773689F
:101270005B7923B1336829461B683046984708F1EB
:1012800001081036B845F2DB8AE700BF560F002090
:10129000480400203C04002040040020570F002098
:1012A00080650000E8650000B0650000E8650000AA
:1012B000F865000090630000C4720000F869000047
:1012C000126A0000294B73B51B6841810446984798
:1012D000274DE060BFF35B8F55E8003F013345E8E1
:1012E0000032002AF8D1BFF35B8F4FF02003EFF3F9
:1012F000118683F31188BFF36F8F1E48214604F0D7
:1013000066F886F31188BFF36F8F1B4B1B7883B190
:101310004FF02003EFF3118483F31188BFF36F8F35
:101320000020FFF717FF84F31188BFF36F8F02B01F
:1013300070BD124A2B681268002AF8D0012B0AD11E
:1013400000220023CDE900230D484FF40042002382
:1013500003F0BEFBEBE70A2BE9D1094804F0E8FFF4
:10136000084802B0BDE8704003F0E6B80400002071
:101370003C04002048040020570F00206C0400208B
:1013800078020020E401002010B5FFF771FE03F0A1
:10139000CDF80C4B186030B10B4B1B68092B02DDEC
:1013A0000A4803F0C9F8094C0020FFF7D3FE0028D3
:1013B000FAD14FF0FF324FF0FF33204603F0DCF854
:1013C000F2E700BF6C0400203C040020E401002090
:1013D000F8B50E4F3D7875B90D4C0E4EFFF748FE2F
:1013E000361B3611B54207DB0020FFF7B3FE00289D
:1013F000FAD101233B70F8BD63685B791BB12368A8
:1014000020461B69984701351034EBE7570F002041
:10141000E8650000F865000007B504380190BFF3E7
:101420005B8F50E8003F5A1E40E800210029F8D1A8
:10143000BFF35B8F012B03D1034801A902F0F6FB38
:1014400003B05DF804FB00BF5004002020230249D4
:1014500002481A4604F01FBEA02C00207004002091
:1014600037B50023094D01930120FFF773FE0446B1
:10147000FFF7C6FD0022002301A9284602F0A4FBC5
:1014800008B1002CF0D1019803B030BD70040020E9
:1014900007B50023019307480022002301A902F0A9
:1014A00093FB10B1FFF7DCFF0190019803B05DF8EA
:1014B00004FB00BF70040020F0B5037A457A85B0C4
:1014C0002D090190D8071CD4DDB1002426460198CF
:1014D000314604F082F80746FFF72CFE70B134B9AC
:1014E000019B2946186903F091FF044648B124FA8C
:1014F00006F3D90702D53846FFF78EFF0136AE4214
:10150000E5D3019B1A7A920704D55B69084C0393D3
:10151000039B2BB9064801A902F088FB05B0F0BD7A
:101520001D6803A9204602F081FB0395F0E700BF88
:10153000700400200EB403B503AB014653F8042B2E
:1015400004480193FFF722F902B05DF804EB03B001
:10155000704700BFE75900002DE9F04F85B011F04A
:10156000020490469DF8387006461A4601F00109BB
:1015700001F0080507D011F0440F37D13249FFF7C9
:10158000D9FF01460C46B9F1000F0AD02F4B304964
:1015900053F827202F4B3046002A08BF1A46FFF782
:1015A000C9FF3DB12C4B2D4953F827203046FFF79A
:1015B000C1FF0546B8F1000F43D0012303FA07F736
:1015C000274B17F0100F274F18BF1F46BDF84010CC
:1015D0009DF83C00FFF724FD394602463046FFF7F0
:1015E000A9FF2844204405B0BDE8F08F1E4B1968C0
:1015F0000029C7D01D4B4FF4616E1B68B2FBF3F39B
:101600004FF47A7CB3FBF1F4B4FBFEF20EFB124E06
:1016100001FB14340CFB04F44FF03C0AB4FBF1FB67
:1016200001FB1B440CFB04F4BEFBFAF3B4FBF1F129
:10163000CDE901B10AFB13E100910D49FFF77AFFF3
:101640009FE7084FC2E700BF636A000028660000FA
:1016500020700000556A00003C660000886A0000A7
:101660005F6A00005A6A00008C0400209004002089
:101670006C6A000038B50C46E107054603D5084AF8
:101680000849FFF757FFE20608D4A30628464CBFD7
:1016900005490649BDE83840FFF74CBF38BD00BFDB
:1016A000556A0000207000008F6A00008E6A0000FA
:1016B0002DE9F0471D46089B1746DA0604460E46FC
:1016C00005D499064CBF2A492A49FFF733FFDFF8B2
:1016D000AC904FF00008A8452ADBDFF8A480DFF8C3
:1016E000A490DFF898A00025BD422FD2725D494634
:1016F0002046FFF71FFF0135102D20D11E49DFF8CE
:101700007C80DFF884902046FFF714FF0025AF426D
:1017100028D9725DA2F120035F2B28BF2E224946F3
:101720002046FFF707FF0135102D14D1BDE8F087E3
:1017300049462046FFF7FEFE08F10108CBE76A079D
:10174000D2D151462046FFF7F5FECDE7414620466F
:10175000FFF7F0FECFE76B07D9D141462046FFF7F0
:10176000E9FED4E741462046FFF7E4FEDBE700BF91
:101770008F6A00008E6A00009B6A0000996A000070
:10178000976A0000916A0000C26900002DE9F047E5
:101790008B7A13F0070817468AB00A7A05460E4678
:1017A00021D04989C3F3C203C1F38911D243CDE9E2
:1017B00000830291F36802F001023946FFF7CCFE84
:1017C0008146347AE44314F001040ED029463046B1
:1017D00003F09FFFB8F1000F2BD042463946284650
:1017E000FFF748FF25E0C146EBE7B8F1000F26D12F
:1017F0002746EB68069306AA3B46A968304603F0E5
:1018000074FF069A6B681A603AB1AB68134413F818
:10181000014CA4F10A035C425C41284604F0D6F86E
:10182000069B1F44002BE4D11CB114492846FFF746
:1018300081FE284604F0CAF80AB0BDE8F0873046B9
:1018400003F0FDFE0E4902462846FFF773FE4FF0F7
:10185000100A05AA234606A93046CDF814A003F0C5
:1018600044FF059A002AB8D04B46009706A928469F
:10187000FFF71EFF059B1C44EBE700BF9D6A0000BD
:101880002070000073B542F20F738B4228BF0B46E5
:1018900005680F4A04460521684603F094FB636817
:1018A0000C495B6806460B22284603F025FF636857
:1018B0003246694628465B6803F01EFF63680649A6
:1018C0005B681B22284603F017FF02B070BD00BF03
:1018D00006720000DB6A0000BF6A0000084A10B50B
:1018E0000123084C13600021A04204D801B1136009
:1018F000054B186010BD40085B000121F4E700BFF4
:101900009004002040420F008C040020F8B5074FDF
:101910000D4604464618B44201D12846F8BD386841
:1019200014F8011B83685B689847F4E7A80400205B
:10193000014804F04BB800BF686600000148FFF79B
:10194000A1BF00BF6866000008B5034801F0BCFFF6
:10195000024B186008BD00BFE76A0000A804002021
:1019600010B508460C4603F028FE054821460F2214
:10197000FFF70CFF2046BDE8104003F04DBE00BF4E
:101980006866000008B504464FF02002EFF31183AB
:1019900082F31188BFF36F8F04F0D5F8204601F071
:1019A00087F8034803F002FB00F076FCFCE700BF79
:1019B000056B000010B50748074C01F085FF074B89
:1019C0001860204601F056F82046FEF7D1FD0020B1
:1019D00010BD00BFE76A0000E1190000AC04002060
:1019E0000A2838B5074D044604D1286883680D21BC
:1019F0005B68984728688368E1B25B68984720462F
:101A000038BD00BFAC04002070B504460D48231A51
:101A10009A100D4B5343DBB20C255D4305F1400397
:101A20000E461844402104F002F8011E04DB074B67
:101A30002B445B689847002120463346BDE8704040
:101A4000184700BFC0040020B76DDBB68C660000ED
:101A50002DE9F0410F4C104D031B9B105D43EBB281
:101A60000C255D43074605F140000E462044402109
:101A700003F0F6FF011E08DB084B2C44C4E90E36C8
:101A8000074B5B59BDE8F041184738463346BDE87F
:101A9000F0411847C0040020B76DDBB6C35A000000
:101AA0008C660000002270B501210446104600F04B
:101AB00085FB002000F064FB0F4801F07DFD0F4B1B
:101AC000984215D104F0DBFAE6680D49304603F080
:101AD000D6FA00280BDB01253564E468084904F1D7
:101AE0001C0003F0CCFA002801DBE564002070BD87
:101AF0006FF00400FBE700BF391B00000000AD0BD6
:101B0000A466000001460C2309484B4370B5C41875
:101B1000D4E90E5600224033A263184403F0BEFFFE
:101B20002DB132462B460348BDE87040184770BDC2
:101B3000C0040020F000002010B1012804D070473C
:101B4000034B1B6C5B0701D1FFF7DCBF704700BF85
:101B5000C004002008B54FF02003EFF3118183F398
:101B60001188BFF36F8F124A136843F0020013F01D
:101B7000010310600CD04FF08042D2F80C34D2F840
:101B80000C2413F0010303D00A4803F087FF01235C
:101B900081F31188BFF36F8F23B1BDE808400020A7
:101BA000FFF7B0BFBDE80840012001F015BD00BF40
:101BB0001005002000050020094BBFF35B8F53E8A0
:101BC000002F22F0020143E800100028F7D1BFF3F4
:101BD0005B8FD30702D4012001F030BD704700BFF6
:101BE000100500201FB500220123CDE90223094A78
:101BF000CDF800D06B46CDF804D003F088FF002864
:101C000005DB4FF480420023684602F0B5FC05B0C6
:101C10005DF804FBE15A00002DE9F8433A49BFF3AF
:101C20005B8F0646012251E8003F41E80020002872
:101C3000F9D1BFF35B8F33B9344935484B60CB6082
:101C40008A6003F02FFA731E012B32D8012E07D1C0
:101C50004FF08043D3F81C3403F00303012B28D04A
:101C600004F007FB044618B92A4B1B78002B44D11B
:101C70004FF02003EFF3118583F31188BFF36F8FCB
:101C80000124254FDFF89480DFF894904FF08042D4
:101C9000D2F81834D2F81824D2030CD503F0030379
:101CA000012B01D0012E06D10CB385F31188BFF3AF
:101CB0006F8FBDE8F883ACB1284600F0FBFA4FF017
:101CC0008042D2F81835002BE0D139680029DDD0E8
:101CD0003B603B680123C2F81835C8F88031C9F869
:101CE0000030D3E70021212002F0FEFBE7E74FF0B0
:101CF00080430222C3F80423DBE74FF08043022233
:101D0000C3F808230546BCE714050020B0040020F2
:101D1000DC0400209B0F00200401004000E100E0F3
:101D200008000040044A1368C81A20F07F400344AA
:101D3000136002F021BE00BF240500202DE9F0470A
:101D4000860006F1804600F1500406F58836A400AE
:101D5000DFF87C80D6F84035A4B204F180444FF41B
:101D6000803721F07F4504F588348740C146D8F894
:101D700004A5A3EB0A0323F07F432AF07F42012B43
:101D8000C6F8402502D1132004F079FA0AF10202C4
:101D9000AB1A23F07F43B3F5000F88BF154600232D
:101DA00023602368C9F8447325F07F43C6F84035A3
:101DB000D9F804359A4506D0EB1A023B23F07F434D
:101DC000B3F5000F01D8BDE8F0872B46CFE700BF81
:101DD00000100140F8B5104E104F0025104B0020A8
:101DE0001C681A4605B1F8BDD6F80413C903FAD524
:101DF00039680029F7D03D6039684FF48031C6F862
:101E00004813D6F8401501251CB15A681860A04740
:101E1000E4E71460E7E700BF001001404011014013
:101E20001805002038B5104D00244FF48033C5F854
:101E30000845C5F804330D4B4FF40032C3F8802138
:101E400001212246112000F0B9F9112000F098F983
:101E5000074A01231360074A2B6002201360FFF733
:101E6000DBFE204638BD00BF0010014000E100E06D
:101E70000810014020050020134BB0F1FF3F08BFC0
:101E80001846013800281CDD9842A8BF18460F4BA1
:101E9000D3F804250E4B1968521A12F4000F22F0E1
:101EA0007F4318BF00200B4A013303440A481060E7
:101EB00000205060044A934294BFC9188918FFF764
:101EC0003DBF0020E3E700BFFFFF7F00001001409F
:101ED0002405002018050020251D00004FF02002D9
:101EE000EFF3118382F31188BFF36F8F064AD2F8A4
:101EF0000405064A1268801A20F07F4083F3118897
:101F0000BFF36F8F704700BF001001402405002011
:101F10004FF02003EFF3118283F31188BFF36F8F2B
:101F20000649074B0868D3F8043582F31188BFF3DC
:101F30006F8F1B1A23F07F4318447047240500203D
:101F400000100140014802F07FBE00BFB0660000F3
:101F500008B5D0B14368042B11D100220368BFF348
:101F60005B8F53E8001F012903D143E800200028BC
:101F7000F7D1BFF35B8F074808BF104608BD3BB1E0
:101F8000006801F0F5FE0020F8E76FF4E040F5E7A7
:101F90000148F3E7E98FFFFFEA8FFFFF10B5044622
:101FA00018B90D4B0D485B689847616808290DD03A
:101FB00031F004030AD011F0020108D0084821468C
:101FC00001F034FE002323600023636010BD20680D
:101FD000142203F025FEF7E790000020586B000064
:101FE0002805002010B5044618B9164B16485B6842
:101FF00098476368042B23D0082B21D0CBB92368E2
:10200000BBB912484FF0FF324FF0FF33214601F0C9
:10201000DBFD08B923681BB90A4B0D485B6898477C
:1020200020681422002103F0FBFD636843F00203E3
:102030006360206804F04AF8636843F0010363605A
:1020400010BD00BF90000020586B00002805002044
:102050007E6B000008B508B34368042B10D1012241
:102060000368BFF35B8F53E8001F002903D143E8E7
:1020700000200028F7D1BFF35B8F0BD1002008BDF3
:1020800053B100684FF0FF324FF0FF3301F0F8FD1D
:102090000028F3D00348F2E70348F0E76FF4E0408C
:1020A000EDE700BFE98FFFFFEA8FFFFF08B50649A4
:1020B00006484023142203F0EEFFBDE8084004491F
:1020C000044802F017BE00BF440500202805002088
:1020D000C8660000B8660000094A0A4993680968A2
:1020E000D967094998674B6843F080534B600023D8
:1020F00083F31188BFF36F8F9368D86F704700BF69
:10210000F40A00209468000000ED00E012498A689B
:102110004FF038001044EFF3098C80E8F01F2020C6
:1021200080F31188BFF36F8F0C4F4FF000668A6AFF
:102130008A603E60906F0023936780F3118804B536
:10214000104600F0CBFBBDE8044002F1380090E8F7
:10215000F01F8CF309887047F40A002004ED00E0BA
:102160001EF0040F0CBFEFF30880EFF309808169C4
:1021700011F8021C0229FFD001B503F0ECFC01BDEF
:1021800043B2002B08DB012200F01F0002FA00F02E
:102190005B09024A42F82300704700BF00E100E0FB
:1021A000054B420900F01F0053F82220012303FAD7
:1021B00000F01040704700BF00E100E043B2002B88
:1021C000A8BF03F1604301F10101B8BF064B4FEA1C
:1021D0004111ACBF03F5614300F00F00C9B2B4BFB9
:1021E000195483F80013704714ED00E042F8203CC6
:1021F000009B42F81C3C0A49019B42F8183C029B98
:1022000042F8143C21F001014FF0807342F8043C85
:1022100042F8081C0023203A82658367704700BF9C
:10222000375100000B4A0346906890B113F1160F26
:10223000806E05D0A0F120029A4206D8834204D2D3
:1022400081422CBF0021012100E00021002908BFAC
:1022500000207047F40A002008B504460E461546D3
:1022600000F030FB084B20469C6000F037FB28460E
:1022700086F30988002163B681F31188BFF36F8F5D
:102280000022002302F057FFF40A00200149102227
:102290000A60704710ED00E072B6404080F311888C
:1022A000BFF36F8FBFF34F8F30BF62B6BFF36F8F37
:1022B000704700BF72B6494081F3118820BF80F398
:1022C000118862B6704700BF73B506460C4601B36D
:1022D000134B144D1448ED1AED08AD0145F00105FE
:1022E000ADF80050D1E90123096803F0E9F8ADF831
:1022F0000050D4E90423E1680C4803F0E1F8E169F7
:102300000B482A4603F0AFF8A1690A482A4603F0B1
:10231000AAF82146304602B0BDE8704001F0FCBA90
:1023200080650000C8650000AB6B0000DA6B000040
:10233000096C0000186C000030BFFFF7FDBF00BF44
:102340000E4A08B50E4B22F07F029A60BFF34F8F02
:10235000BFF36F8FD3F8882022F47002C3F888206F
:10236000EFF3148323F0040383F3148801F062FB7A
:1023700002F008FA00F078FA01F080FB000000009B
:1023800000ED00E001B572B60B4A506A00281EBF8E
:102390000021516203F07DFE62B6EFF30580A0F1EB
:1023A00010004FEAC0000549014409C99847BDE83B
:1023B0000140034908470000F40A002000640000BF
:1023C0004D28000003F052FC202080F311880848BB
:1023D0004FF40261401880F30988EFF31480022162
:1023E000084380F31488BFF36F8FFFF7A9FF000045
:1023F000601C0020EFF30880EFF3098101B57246FD
:1024000000F04EF901BD00BF2DE9F047354B364CC9
:10241000364DE41AE408A40144F001090746884651
:1024200033484946164603F011F8AA6AD30603D585
:102430003048494603F00AF8AB6A180704D52E481D
:1024400044F0010103F002F8284DAB6A990723D448
:102450006FF01509254DAA6AD30704D5274844F023
:10246000010102F0F3FFAB6A980604D5244844F05A
:10247000010102F0EBFF1D4B9A6AD10624D49A6A3F
:10248000920721D40020194A936A43F0FF03936214
:1024900000233370BDE8F08744F0010A1948514623
:1024A00002F0D4FFD5F83490AB6A1A06D0D516489E
:1024B0005246494602F0D7FFB8F1000FCAD0AB6AC6
:1024C00023F08003AB62C5E75B681B05DAD53946AC
:1024D0004846FFF7A7FE0028D4D080F309880220E1
:1024E000D1E700BF80650000C865000000ED00E096
:1024F000466C00005C6C00008F6C0000D06C00002B
:10250000EF6C0000A26C0000BA6C000070B5234BA9
:10251000234C244D2448E41AE408A40144F00106A5
:10252000314602F093FFAA6A930103D51F48314652
:1025300002F08CFFAB6ADD0104D51D4844F00101B7
:1025400002F084FF174DAA6A100304D5194844F01D
:10255000010102F07BFFAB6A590304D5164844F031
:10256000010102F073FF0F4DAA6A920304D51348CC
:1025700044F0010102F06AFFAB6ADB0304D51048A6
:1025800044F0010102F062FF064A936A6FEA0343D6
:102590006FEA13439362002070BD00BF80650000A6
:1025A000C865000000ED00E01E6D0000366D000003
:1025B000496D0000636D0000816D0000A66D000094
:1025C000C06D00002DE9F0412A4B2B4C2B4DE41A35
:1025D000E408A40144F0010807460E462848414695
:1025E00002F034FFAA6AD10403D52648414602F01E
:1025F0002DFFAB6A1A0504D5234844F0010102F00F
:1026000025FF1E4DAB6A9B0512D544F001081F48FB
:10261000414602F01BFFA96BAB6A180408D51C48A1
:10262000424602F020FF1FB1AB6A23F40043AB62C5
:10263000124DAB6A590504D5164844F0010102F069
:1026400005FFAB6ADA050DD5134844F0010102F02D
:10265000FDFE0A4A936A002043F47F439362307080
:10266000BDE8F081AB6A9B04F3D50C4844F001014E
:10267000EDE700BF80650000C865000000ED00E0E8
:10268000EB6D0000016E00008F6C0000126E000008
:102690002B6E0000406E00005B6E0000EF6C0000CF
:1026A0002DE9F041574B5E688AB00F46C6F3080427
:1026B000002585F31188BFF36F8F02F07F43B3F1DC
:1026C0007F4F0DD102F00C03082B0BD14E494F4B1D
:1026D0004F48C91AC908890141F0010102F0B6FE4C
:1026E0002F4603E0120701D40746012500238DF889
:1026F0000730E31E092B6BD8DFE803F005595D3D79
:102700006A6A6A6A6A61414B3F4E4248F61AF608A5
:10271000B60146F00106314602F098FE394BDC6AFC
:102720004FF0000814F002048DF8078005D03A48F5
:10273000314602F08BFE002420E0DB6A5B001DD5F1
:102740003648314602F082FE354B1B7833B10DF12D
:10275000070201213846FFF757FE0EE0314B1B7888
:102760002BB10DF107010120FFF72CFF05E02E4BE7
:102770001B889BB213B1FFF7C9FE04469DF80730D2
:1027800093B92022394602A803F01FFA099B9DB392
:10279000C3F3080222B96FEA53236FEA4323099374
:1027A00002A92046FFF790FD0AB0BDE8F0810DF1C7
:1027B00007020021CEE70DF107010020D4E71249FE
:1027C000124B1A48C91AC908890141F00101B0E742
:1027D0000E4A0D4B164817499B1ADB0816F4F87F72
:1027E0004FEA831318BF014643F001031248A4F1D6
:1027F000100202F04CFE9EE723F4FF7323F0010366
:10280000CDE700BF00ED00E0C86500008065000076
:10281000736E00009E6E0000B56E0000D66E000064
:1028200028ED00E029ED00E02AED00E0F56E000063
:10283000406F00002B6F0000596F0000024A53697F
:1028400043F010035361704700ED00E0044B9968BA
:10285000986A884203D003494FF080520A6070475B
:10286000F40A002004ED00E0044800232021C218EF
:102870000133302B82F80013F9D1704700E100E0FA
:1028800008B50E4B9B68834207D1EFF3058393B1E4
:102890000B4A536843F08053536001F077FC4FF0CC
:1028A0002003EFF3118083F31188BFF36F8FBDE82E
:1028B000084003F032BC01F045FF00BFF40A0020DD
:1028C00000ED00E0024B034A0348012100F0B2B8DA
:1028D0000000042000000020DC660000826E054B32
:1028E000203A1A60044A2021C3E901121846012146
:1028F00000F0AAB8440A002000000B15F8B5284FD4
:102900000E460021B14214DA4468002C45D0C3B110
:1029100004F1FF3C14EA0C0F0DD0224A224B23484D
:10292000D21AD208920142F0010202F09CFD6FF02F
:1029300015021046F8BD1F2CEFD905681CEA050FDB
:10294000EBD1202CD5B2D0F808C0026816D9B4F16A
:10295000004F15D8013CB4FA84F4C4F11F0464009C
:10296000072D4CEA04040DD90E4A0F4B1048D21A19
:10297000D208920142F001022946D6E70824EFE787
:102980003E24EDE722F01F022A4342F0100244F0F9
:102990000104BD60FA603C616A1C01310C30B1E792
:1029A00090ED00E0C065000080650000706F0000E1
:1029B000936F0000034B05225A60BFF34F8FBFF3A4
:1029C0006F8F704790ED00E0BFF35F8F014B0022E7
:1029D0005A60704790ED00E013490868082810B568
:1029E0001ED8FFF7F1FF114C49680022904201F117
:1029F0000C0105D10E4B1870FFF7DCFF002010BD55
:102A0000A26051F80C3C23F01F03134343F0100362
:102A1000E36051F8043C43F0010323610132E5E730
:102A20004FF0FF30EBE700BFE866000090ED00E0FC
:102A3000590F002010B5034C01232278FFF75EFFE9
:102A4000207010BD590F002008B5084A00231278E5
:102A5000FFF754FF10F1160F03D0054B0022072893
:102A600000DD08BD98601A610130F8E7590F0020B9
:102A700090ED00E0014B1860704700BF2800002077
:102A80004FF02003EFF3118283F31188BFF36F8FB0
:102A900006490123C1F840354FF08041C1F878352F
:102AA00082F31188BFF36F8F0020704700E0014070
:102AB0004FF08043C0B2C3F81C05BFF34F8F0549E8
:102AC000054BCA6802F4E0621343CB60BFF34F8F3B
:102AD00000BFFDE700ED00E00400FA0520B1034B64
:102AE000800143F001031847704700BF20660000D3
:102AF0002DE9F04F384A394C394DA41AE4084FEA11
:102B0000841887B00026AA4648F003086B792F681E
:102B10000093384600F0C2FE009B60B9A2013968FC
:102B2000304842F0010202F09EFC6FF01207384676
:102B300007B0BDE8F08F95F806902979D7F80CB06A
:102B4000B9F1000F14BF4FF4D0524FF4B0521A43F2
:102B5000D80748BF82F4E052BB6838461B68CDE90D
:102B6000001298470099074620BB019ADBF8003015
:102B7000012000FA01F1D2074CBF0B438B43CBF885
:102B800000302B7A53B11849184A1948B9F1000F8F
:102B900008BF0A464346E96802F079FC01360E2E6A
:102BA00005F11005B2D1A101124841F0030102F074
:102BB0004DFCBCE70AEB0616A301F2790290CDE9C1
:102BC0000321F26805920C4843F00103042202A994
:102BD00002F092FCABE700BF806500008865000052
:102BE00008670000CC6F0000117000000970000041
:102BF0001A70000023700000DC6F000008B5094B5C
:102C00001A786AB90121197006200521FFF7D6FA52
:102C10000620FFF7B5FA044B4FF00042C3F8042337
:102C2000002008BD5A0F0020006000402B4BF0B57B
:102C300044682B481340834241D00DD8062B15D051
:102C400005D89BB1022B3CD06FF0150036E0B3F5F0
:102C5000801FF9D1012309E02248834233D0B3F524
:102C6000A00F32D0B3F5800FEED10223D00654BFAF
:102C7000C2F34016032682F480759705C2F3402004
:102C8000C5F3002507D512F4006F67681FD0012235
:102C90008A40C7F80825227A134C012A01F01F0147
:102CA00040EA450218BF4FF0A04442EA032301F571
:102CB000E07143EA860344F821300020F0BD072389
:102CC000D4E70423D2E70523D0E70323CEE7520558
:102CD00042BF01228A40C7F80C25DCE70600F0005D
:102CE00006001000020040000003005000F01F0228
:102CF0004009084B012818BF4FF0A04303EB8203A3
:102D0000D3F8002722F4403242EA0142C3F80027F8
:102D1000704700BF00030050F7B50E464168C76812
:102D2000097A06F01F05B2F5A03F45EA411510D11A
:102D30006809012805F01F015D4801F5E07118BF21
:102D40004FF0A04050F82110C80707D56FF02200BF
:102D500093E0B2F5005FF96800F09180F868012116
:102D6000B14001437869F9600121B140B2F5A03F5B
:102D7000BA690CBF08438843B3F5C02F0CBF0A43A0
:102D80008A43BA613A697861B3F5802F0CBF114369
:102D900022EA0101474A3961D2F804330020DBB24C
:102DA00000F5A27152F82110C1F305218D426BD1BB
:102DB00023FA00F1C90767D5830003F1804303F5C7
:102DC000C043D3F8101521F00101C3F810150123F9
:102DD0008340C2F80833C0B200F0AAFC28460021A4
:102DE000FFF784FFF868F04010F0010045D07869E3
:102DF000F04010F001044ED0BB69F340DB075FBF29
:102E0000396921FA06F606F00106C6F102060DF14F
:102E1000070054BFF6B2032600F0ACFC264B9842E4
:102E200036D19DF807108B0003F1804303F5C043B2
:102E30002D02D3F8102522F44F3222F44072C3F849
:102E40001025D3F8102505F47C5515438A0002F1AE
:102E5000804202F5C24245EA06460020C3F81065EA
:102E600010601268D3F8102542F00102C3F8102553
:102E7000104A01238B40C2F8043303B0F0BD012097
:102E8000B04021EA00016DE70130082888D1A5E7AC
:102E90006FF01200F1E73969F14001F00101C1F171
:102EA00003012846C9B2FFF721FF2046E5E700BF2E
:102EB00000030050006000400000AD0BF7B5002695
:102EC000CDE90066264D2C684CB1264802F03AFF49
:102ED0000090254802F036FF01902E602B68234DAC
:102EE000002201269446D5F8043306FA02F119426D
:102EF0001BD0910001F1804101F5C2410B68A3B1E3
:102F000002F5A27302AF55F82330C1F800C0C3F335
:102F1000403007EB8000C3F3042350F8087C06FA26
:102F200003F33B4340F8083C0B680132082ADAD12E
:102F3000009A1AB10B490E4802F09AFE019A1AB192
:102F400009490C4802F094FE44B1064802F023FF00
:102F5000054803B0BDE8F04002F01DBF03B0F0BD6E
:102F60007C610040300100204001002000600040F2
:102F7000540A0020700A0020F0B54B79012B29D0AB
:102F8000032B24D110268B79032B20D1CC7924B1AB
:102F9000012C1CD143681B79CBB10A7912B1022AEA
:102FA00015D10E220B684568B3F5164F2D6865D014
:102FB0002DD8B3F5165F64D016D8B3F5966F62D0EE
:102FC0000AD8B3F5967F61D0B3F5167F61D06FF064
:102FD000220052E00026D6E7B3F5166F5CD0B3F5B9
:102FE000965FF4D1374B3CE0B3F5E14F57D007D8AB
:102FF000B3F5615F55D0B3F5964FE8D1324B30E071
:1030000047F61227BB42E2D14FF4000329E0B3F5A3
:10301000613F48D013D8B3F5963F47D009D84DF655
:10302000C027BB4244D0B3F5614FD0D14FF46B03FE
:1030300017E0B3F5E13FCAD14FF0EB7311E0B3F500
:10304000612F38D008D8214FBB4237D0B3F5E12FDC
:10305000BDD14FF0E86304E01D4FBB42B7D14FF044
:103060008053C5F82435C36803C93443224304336D
:10307000C5F86C2583E803000020F0BD4FF41D0364
:10308000EFE7144BEDE74FF49E23EAE74FF4A0334C
:10309000E7E74FF41C33E4E74FF41D23E1E70E4B61
:1030A000DFE70E4BDDE74FF06C73DAE70C4BD8E748
:1030B0004FF46503D5E74FF07063D2E74FF08063BC
:1030C000CFE700BF00B0130000A04E0090D0030077
:1030D00040420F000050270000C0750000F03A0089
:1030E00000903A012DE9F041C7680646884603F092
:1030F000C0F8B8B9284B1B7883F0010372681568D3
:1031000093B14FF02003EFF3118483F31188BFF3E1
:103110006F8F304602F0B3FE38BB84F31188BFF3E3
:103120006F8FEEE70123E9E76424304602F0A7FE43
:1031300070B9012002F0A1FF013CF6D1002121204D
:1031400001F0D2F9F0E784F31188BFF36F8FF5E750
:103150004FF02003EFF3118483F31188BFF36F8FD7
:10316000304602F08CFE0028EDD007F8148F0123C2
:103170000022C5F84475C5F84835C5F82021D5F8B2
:103180002011C5F85821D5F85821AB6084F3118877
:10319000BFF36F8FBDE8F0819B0F002000F01F028E
:1031A00040090128044B02F5E07218BF4FF0A0431C
:1031B000032143F8221070470003005000F01F0164
:1031C00040090128044B4FF0010218BF4FF0A04303
:1031D0008A40C3F8082570470003005043682DE972
:1031E000F0411C68C7680D464FF00008C4F8008520
:1031F000064638600868FFF7E1FF2868FFF7CEFF52
:103200006A68511C0BD05109012902F01F03414982
:1032100003F5E07318BF4FF0A04141F823802B68FD
:10322000C4F80C35AB68C4F814255A1C0CD003F054
:103230001F025B09012B02F5E072364B18BF4FF0FD
:10324000A043002143F82210E868431C04D0FFF794
:10325000B5FFE868FFF7A2FFD5E90232F168C4F8CC
:1032600008250431C4F810353046FFF785FE804646
:10327000A8B973689B7943B307F1160000F0B2FA5E
:10328000254B98420ED0254B25492648C91AC90816
:10329000890141F0010102F0D9F86FF004084046BD
:1032A000BDE8F081B87DC30003F1804303F5F83336
:1032B00004F10C0204F59071C3F81015C3F814253D
:1032C000194A01238340C2F804350823C4F80035A5
:1032D0006B6801330CD00023C4F81031D4F81031DE
:1032E00007F11503C4F834350123C4F838352360D9
:1032F00073689B791BB94FF48073C4F804330023BF
:103300001437C4F84475C4F848350123A360E3605A
:10331000C5E700BF000300500000AD0B8065000052
:10332000E06500006871000000F0014030B50A4B14
:1033300005460FCB85B06C4684E80F0000220121C2
:103340000220FEF73BFF0220FEF71AFF2146284627
:10335000FFF744FF05B030BD0066000030B50A4BF2
:1033600005460FCB85B06C4684E80F000022012192
:103370002820FEF723FF2820FEF702FF21462846DB
:10338000FFF72CFF05B030BD1066000008B5FEF752
:103390001FF8064B06490748C91AC908890141F0B8
:1033A000010102F053F80020FFF782FB8065000066
:1033B000A065000097710000064B1B68082B06D122
:1033C000054B1B68052B02D8044AD05C70470020CF
:1033D000704700BF3001001034010010BF710000C1
:1033E000064B1B68082B06D1054B1B68052B02D822
:1033F000044AD05C70470020704700BF30010010C5
:1034000034010010C5710000024AD2F80034002BCC
:10341000FBD0704700E0014010B5FFF7CDFF40B191
:103420004FF080430022C3F80C21C3F81021C3F8E9
:103430003825FFF7C1FF002846D04FF08052524B8D
:10344000D2F80414C3F82015D2F80814C3F82415D0
:10345000D2F80C14C3F82815D2F81014C3F82C15A0
:10346000D2F81414C3F83015D2F81814C3F8341570
:10347000D2F81C14C3F84015D2F82014C3F8441530
:10348000D2F82414C3F84815D2F82814C3F84C1500
:10349000D2F82C14C3F85015D2F83014C3F85415D0
:1034A000D2F83414C3F86015D2F83814C3F8641590
:1034B000D2F83C14C3F86815D2F84014C3F86C1560
:1034C000D2F84424C3F87025FFF78AFF10B12F4BC0
:1034D0002F4A1A60FFF784FF18B12E4BFB22C3F866
:1034E0001825FFF77DFF48B12B492C4B0A681B6854
:1034F00022F00F0203F00F0313430B60FFF770FF7E
:1035000018B1274B4FF400721A60FFF755FF48B10E
:103510004FF08043D3F80024D20744BF6FF001027C
:10352000C3F800244FF01023D3F80022002A03DB55
:10353000D3F80432002B22DA1A490123C1F80435EA
:10354000FFF762FF4FF010201224C0F80042FFF78F
:103550005BFFC0F80442FFF757FF0023C1F80435B2
:10356000FFF752FFBFF34F8F0F49104BCA6802F4A9
:10357000E0621343CB60BFF34F8F00BFFDE70C4BFE
:103580000C4A1A6010BD00BF00C000408C560040BD
:103590004881030000F00040E40E00405802001093
:1035A0004096024000E0014000ED00E00400FA0512
:1035B000840000200090D003044B1A7922B9012224
:1035C00018609A800248704702487047880A0020B5
:1035D0000000AD0B0C00AD0B10B1012820D07047DE
:1035E0004FF08043D3F81824D3F8181411F4803F17
:1035F000194611D002F00302012A0DD1C3F8182593
:103600000C4B00221A601B684FF080430222C3F863
:10361000042301229A6070470023C1F81835EFE7B0
:10362000054B00221A601B684FF08043C3F8040367
:1036300018607047040100400001004038B510B127
:10364000012818D038BD4FF080430222C3F8082368
:10365000184A10601268184A0121116042F2107570
:103660001C46D4F81834DB03ECD5012002F005FD2C
:10367000013DF6D1E6E7114B4FF080440022C4F83B
:1036800008031A601B680E4B42F210751860D4F8DC
:103690000C34D4F80C24D20303F0010305D523B174
:1036A000012002F0EAFC013DF1D1064B00225A71E3
:1036B000C8E700BF040100400C00004000010040CA
:1036C00004000040880A0020164B1A6810B56AB141
:1036D00000221A601B684FF080430122C3F80823C0
:1036E000114B587910B95A711B6898470F4B1A68DB
:1036F00072B100221A601B684FF08043D3F818247F
:10370000D3F81814920704D10122C3F818259A603F
:1037100010BD0222C3F80823034BBDE810401B680C
:103720000120184700010040880A002004010040E1
:10373000012303FA00F010F0FF0F12D04FF0200326
:10374000EFF3118183F31188BFF36F8F064AD36DB6
:1037500023EA0000D06581F31188BFF36F8F03481F
:1037600070470348704700BF900A00200000AD0B6F
:103770000400AD0B2DE9F0410546DFF860E0164886
:10378000DFF85C800024FF220126E3B24FF0200125
:10379000EFF3118C81F31188BFF36F8F22FA03F1DD
:1037A000C9070AD5DEF85C1006FA03F7394201BFF3
:1037B0003943CEF85C1040462B708CF31188BFF370
:1037C0006F8F404505D006FA03F39A4304F10104D4
:1037D000DBD1BDE8F08100BF0200AD0B900A0020F4
:1037E0000000AD0B2DE9F041144A154E154F05466A
:1037F000154800244FF0010E5FFA84FC4FF02003BF
:10380000EFF3118883F31188BFF36F8F0EFA0CF377
:10381000134207D031680B4201BF1943316085F86C
:1038200000C0384688F31188BFF36F8FB84203D0C9
:103830009A4304F10104DFD1BDE8F081FFFF0F00DE
:10384000F00A00200000AD0B0200AD0BF8B5104BE4
:10385000104F53F82050013053F82060AE4200D88A
:10386000F8BDD5E900342046984770B16CB1E41B2F
:1038700024116109084A04F01F0452F821000123B1
:1038800003FA04F4044342F821400835E6E700BF98
:1038900080680000F000002060010020084BC01A82
:1038A0000011084B420900F01F0053F822200123A9
:1038B00003FA00F010420CBF18460020704700BF0A
:1038C000F000002060010020114970B5114C054640
:1038D0000E468C4204D10F4CB4420AD1002414E0AD
:1038E0002046FFF7DBFF10B12368AB420DD0103448
:1038F000EFE72046FFF7D2FF08B91034ECE7216864
:10390000284602F056F90028F7D1204670BD00BFC6
:1039100060010020F00000202DE9F34106460F462B
:103920004FF02003EFF3118883F31188BFF36F8FFB
:1039300000F0FCFD1F4C204BE41A042E4FEAD40487
:1039400096BF1E4A1E4A52F82620A40144F00103E5
:103950000546ADF800301B480023314601F0B0FDAC
:1039600047B1FB69C3F3080323B1174844F00101D1
:1039700001F06CFD44F001042DB1284602F086FCF4
:1039800008B1037803B91148FDF79CFB23460246B2
:1039900029460F4801F07BFD39463046FFF7F6FC1B
:1039A00088F31188BFF36F8F284602B0BDE8F0415D
:1039B000FEF766BFC86500008065000098680000DB
:1039C000CB710000E171000009720000D9710000A4
:1039D0002A720000F8B5164E054600274FF0200267
:1039E000EFF3118382F31188BFF36F8F286988B1D9
:1039F0002F6183F31188BFF36F8F00F0C7FB4FF087
:103A00002003EFF3118083F31188BFF36F8F02F06F
:103A100084FBE3E702F052FC012102280446D8BFF0
:103A2000084602F05BFC7462FEF736FCD6E700BF86
:103A3000F40A00200248034A0021121A02F0F0B8EA
:103A4000F80100209C0F002008B50A4B012202203B
:103A50001A70FFF7FBFE00F089FE0320FFF7F6FE69
:103A600000F012FEFCF7C6FC034A137B23F00103AF
:103A7000137308BD9B0F0020B00300202DE9804880
:103A8000A7B0FDF777FADFF8F49089F30888334D93
:103A9000334E6B69DFF8E8A0324F43F40073002423
:103AA0006B61E02385F82230EC772C766C76AC766F
:103AB0006B6A43F4E0236B62FEF7C0FEFEF7E6FBA1
:103AC0004FF0FF33AB62EB62274D40F20113ADF8CC
:103AD000243006ABAB602046CDE92044FFF7B6FEAC
:103AE0000120FFF7B3FE4FF0010B00F0A3FC1F4BCA
:103AF000AE621F4905934FF480625346CDE9034BF4
:103B0000CDE901440094304600F060FD737B8046AF
:103B100023F004033046737302F02BFB0F23CDE92F
:103B200002431449144B4FF4A072CDE904B4CDE91B
:103B30000054384600F04AFD7B7BEF6023F004031D
:103B40007B7305F11C03C5E907332C76C5F8049097
:103B5000524641463046FEF77FFB00BF00ED00E0D5
:103B6000B003002030030020F40A00206D6900003B
:103B7000E0160020001B0020D53900008024002022
:103B8000493A000070B50E4B0E4CA34201D3002001
:103B900070BDD3E9030141EA000212F003020BD128
:103BA0009D685A61AA4201D11C33EEE75E690E603E
:103BB000013259610144F5E76FF01500E8E700BFF5
:103BC0009401002094010020D3B50C4616461F46F0
:103BD0004FF02003EFF3118183F31188BFF36F8F50
:103BE00043695BB123601B6843618369013383616F
:103BF000002081F31188BFF36F8F11E056EA0702AE
:103C000003D123606FF00B00F3E70246CDE90067B4
:103C1000044800F07DFB18B9034B9B685B69236087
:103C200002B0D0BD9C0F0020F40A0020F8B5044675
:103C30000D464FF02003EFF3118683F31188BFF395
:103C40006F8F47696FB902F0EFFA50B12A6842618D
:103C5000C76702F08EFA31460848BDE8F84000F028
:103C60000FB92B6862691A602B686361A369013B15
:103C7000A36186F31188BFF36F8FF8BD9C0F0020FE
:103C80002DE9F341044616461F464FF02003EFF39B
:103C9000118883F31188BFF36F8FC368324A6BB109
:103CA00080689168884219D056EA070318D188F3D2
:103CB0001188BFF36F8F6FF00F000CE0916891F9DE
:103CC0000E1021610133E3609368A36088F31188CB
:103CD000BFF36F8F002002B0BDE8F0812169F0E7EB
:103CE00090F90E3091F90E109942A8BF194621EAB9
:103CF000E1718B422CDD00F059FB0546CDE90067F0
:103D00001A482246414600F003FB0028E3D04FF05A
:103D10002003EFF3118683F31188BFF36F8F2368BD
:103D20002169A34207D033B193F90E309942A8BF5D
:103D3000194621EAE171A06890F90E30994209D143
:103D40006DB10A48314600F09BF86FF00A00C2E7F7
:103D50000025D3E700F02AFB0028F2D1F0E786F334
:103D60001188BFF36F8FF0E7F40A00209C0F00204A
:103D700038B583680446002B36D01E4A92689342B9
:103D800035D1DA7B013ADA73C368012B05D0013BE8
:103D9000C36000F0D9F8002038BD4FF02003EFF3E6
:103DA000118583F31188BFF36F8F0169806890F9E3
:103DB0000E30994201D000F0F9FA204602F034FAB0
:103DC000A06058B190F90E2022610022C26702F073
:103DD000D0F90948294600F053F8DAE7E06085F3A6
:103DE0001188BFF36F8FD4E76FF01500D4E74FF061
:103DF000FF30D1E7F40A00209C0F002010B5084CDA
:103E000023685BB1FEF76AF803462068054A03445D
:103E1000BDE810405361002102F060BA10BD00BF40
:103E2000300B0020F40A0020F8B505460C464FF090
:103E30002003EFF3118683F31188BFF36F8F0D4BCF
:103E400000224FF4004740F2E73000215A61E7FBBF
:103E500005014FF47A720023FCF752F9064B186003
:103E6000064B1C60FFF7CAFF86F31188BFF36F8F04
:103E7000F8BD00BFF40A0020300B00202C0B0020FE
:103E800049B9EFF3058030B9054B9A6A9B689A42AD
:103E900001D0FEF721B981F31188BFF36F8F70470E
:103EA000F40A00204FF02003EFF3118183F311880F
:103EB000BFF36F8F044B9A68D37B013BD37381F3BD
:103EC0001188BFF36F8F7047F40A0020094B03F18C
:103ED0002C02824205D19B688B4202D14B7BDB06D0
:103EE00006D1D1E9003213605A600023C1E90033E2
:103EF000704700BFF40A002038B5124C2369A2684D
:103F000001460BB1E5680CE004F12C0002F027F942
:103F1000537B0546980644BF43F008035373002DB6
:103F2000F0D049B9537BDB0606D1AB6923B9D389FD
:103F30007F2B01D9A26238BD954201D0FFF75EFF09
:103F4000A562F8E7F40A002010B54FF02003EFF364
:103F5000118483F31188BFF36F8F084B9A68D37B6A
:103F60000133D3730020FFF7C7FF84F31188BFF339
:103F70006F8FBDE8104002F0DCB800BFF40A0020EB
:103F800070B490F90D20437B002A2CDBDB062AD18C
:103F9000836943BB154A114651F82C4F8C4218BF18
:103FA0002346002B146B38BF0023B3B190F90E6089
:103FB00093F90E50AE4203DBA3420ED01B68F4E728
:103FC0005A68C0E9003210605860437B63F07F0399
:103FD000437370BC0020FFF78FBFC0E90014136B60
:103FE00018601063F1E770BC704700BFF40A00204E
:103FF00010B54FF02002EFF3118482F31188BFF364
:104000006F8F427B510704D484F31188BFF36F8F05
:1040100010BD22F004024273FFF7B2FF21460248AE
:10402000BDE81040FFF72CBF9C0F002070B590F941
:104030000D30002B014602DA1748FFF747FF174AF9
:104040001046146B50F82C3F834208BF0023002B0E
:1040500038BF0023D3B191F90E6093F90E50AE42F0
:1040600003DBA34212D01B68F4E75868C1E90030B3
:10407000016059604B7B906863F07F034B73431A78
:104080005842BDE870405841FFF736BFC1E900040F
:10409000136B19601163EDE7200B0020F40A002078
:1040A00070B501464FF02003EFF3118483F31188BC
:1040B000BFF36F8F164B174A98681568A8421D46C4
:1040C00006D1FFF79BFE84F31188BFF36F8F70BD9D
:1040D00000261660104A1268BAB1C2897F2A14D825
:1040E000427BD20611D10D4A90F90E6012689642B9
:1040F0000BDB0B4A904208D05A698A4202DCFFF778
:1041000095FFDEE7521A5A61DDE700236B61DAE7BB
:10411000F40A0020280B0020300B00202C0B00207C
:104120003003002070B50446183002F0B1F84FF0AB
:104130002003EFF3118683F31188BFF36F8F94F997
:104140000D30002B07DA0F482146FFF7BFFE637BD7
:1041500003F07F0363730C4D637BA86843F0100387
:104160006373031B58425841FFF7C6FE86F311885C
:10417000BFF36F8FAB68A34203D1BDE8704001F07D
:10418000D8BF70BD200B0020F40A00202DE9F041BB
:1041900004464FF02003EFF3118283F31188BFF33D
:1041A0006F8F437B13F0280F05D082F31188BFF384
:1041B0006F8FBDE8F08143F02003437382F31188D1
:1041C000BFF36F8F183002F063F84FF02003EFF366
:1041D000118683F31188BFF36F8F637BD80616D1E6
:1041E000A269A2B9190607D526482146FFF76EFE37
:1041F000637B03F07F036373234B9868021B504279
:104200005041FFF779FE04F1300800271DE09B07BD
:10421000F9D5A0682146FFF759FE637B23F002031E
:1042200063730023A360EEE705F1180002F030F895
:10423000A8682946FFF74AFE6B7BAF6023F00203B4
:104240006B73EF672846FFF79BFE256B454501D052
:10425000002DE9D10C4B9A680C4B9A4202D10120F7
:10426000FFF74AFE637B43F008036373236E86F314
:104270001188BFF36F8F002B9BD02046BDE8F04123
:10428000184700BF200B0020F40A00203003002054
:1042900008B590F90D30002B014606DA0748FFF704
:1042A00015FE4B7B03F07F034B73054B9868431A55
:1042B00058425841BDE80840FFF71EBE200B0020C1
:1042C000F40A00202DE9F041064614461D464FF041
:1042D0002003EFF3118783F31188BFF36F8F01F091
:1042E00078FF87F31188BFF36F8F6B1C08BFB4F1A1
:1042F000FF3F08D022462B4606F118000349BDE8CF
:10430000F04100F0A9BABDE8F08100BF9361000060
:1043100010B5074B9868074B0C4618601146DDE94D
:104320000223FFF7CFFF2046BDE81040FDF7D4BEC3
:10433000F40A0020280B00202DE9F04105460F4625
:1043400001F0E6FF04464FF02003EFF3118883F3FA
:104350001188BFF36F8F124E124BB0681860FFF7D1
:1043600097FFB06810492A463B46183000F074FAAF
:10437000B268537B43F0100353734046FDF7ACFE25
:1043800001F0C6FF2C44241A4FF0000565F100052A
:10439000002C75F10003B8BF00242046BDE8F08171
:1043A000F40A0020280B0020936100002DE9F04161
:1043B00004464FF02003EFF3118883F31188BFF315
:1043C0006F8F437BDB064EB22ED1856965BB184FDC
:1043D000214607F12C00FFF779FDFB6A3A6BA673C3
:1043E000834218BF1D46002D38BF0025B5B195F991
:1043F0000E10B14203DCAA4210D02D68F6E76A68BD
:10440000C4E9005214606C600120FFF775FD0120C3
:1044100088F31188BFF36F8FBDE8F081C4E9000213
:104420003B6B1C603C63EFE7A6730020F0E700BF26
:10443000F40A0020044B002103F12C02C3E90B22F3
:104440000846FFF7F1BC00BFF40A0020F8B5244C81
:10445000244BA2689A4230D04FF02003EFF311852D
:1044600083F31188BFF36F8FA16804F12C00FFF76D
:104470002DFDE36AA268216B834208BF0023002B55
:1044800038BF00232BB392F90E7093F90E60B74238
:1044900003DB8B421DD01B68F4E75968C2E9003189
:1044A0000A605A60537B63F07F0353730120FFF768
:1044B00023FD85F31188BFF36F8F4FF02003EFF3D7
:1044C000118083F31188BFF36F8FBDE8F840FDF7CB
:1044D00003BEC2E90001236B1A602263E2E700BF5A
:1044E000F40A002030030020B1F1FF3F08BFB0F113
:1044F000FF3F08B502460B4606D10B4B9868FFF705
:1045000011FE4FF0FF3008BD13430AD1FFF79EFFA5
:1045100000204FF47A7380FB0323D00B40EA434022
:10452000F1E7FFF709FFF4E7F40A0020014B986870
:10453000704700BFF40A002038B504464FF020034E
:10454000EFF3118583F31188BFF36F8F01F06CFED9
:1045500048B10022C26701F00CFE29460548BDE8BB
:104560003840FFF78DBCD4E902329A4218BF0133BC
:10457000A360F2E79C0F002037B514461D464FF0AC
:104580002003EFF3118183F31188BFF36F8F8368EA
:1045900043B1013B836081F31188BFF36F8F00202B
:1045A00003B030BD54EA050306D181F31188BFF38F
:1045B0006F8F6FF00F00F3E70246CDE90045024828
:1045C000FFF7A6FEECE700BF9C0F00202DE9FF419E
:1045D00000F13005C0E90C550E9D057304254573A7
:1045E0000F460D9D8573D61D00250C9AC57326F0C8
:1045F00007062037C0E90655C0E91A76056706F1B7
:10460000200802920B9A019288440A9A009242462C
:104610000446FDF7EBFD054B9B68C4E9175503B154
:104620005B6F6367404604B0BDE8F081F40A002088
:10463000F0B587B000250595109D04950F9D039555
:104640000E9D0295DDE912670D9D01950C9D00956B
:104650000446FFF7BBFF7B1C08BFB6F1FF3F05D048
:1046600056EA070305D12046FFF7C2FC204607B0F3
:10467000F0BD044932463B4604F1180000F0ECF866
:10468000F4E700BF936100002DE9F0472A4E2B4D5F
:1046900086B0B046B54205F1300410D3FFF702FCF6
:1046A000264CDFF89CA04FF4004940F2E736002783
:1046B000444521D306B0BDE8F047FFF745BC54F8A8
:1046C000043C059354F8103C049354F8143C0393B1
:1046D00054F8183C029354F81C3C019354F8203CC5
:1046E000009354E90A2354E90C01FFF76FFF54F8D3
:1046F000303CDD652546CDE7636A5A1C0DD023EAC0
:10470000E37330463946C9FB0301B94208BFB042E2
:10471000256804D12846FFF76BFC3034C8E74FF416
:104720007A720023FBF7ECFC02460B4605F11800F9
:10473000514600F091F8F0E7940100206401002058
:104740009361000008B54FF02003EFF3118483F369
:104750001188BFF36F8F044B98681861FFF7E2FC74
:104760002046FDF7B9FC00BFF40A0020024A0349C5
:10477000034800F01BBC00BF906A00008F7200006D
:104780009C72000008B50648064A0749121A01F053
:104790001CFABDE80840054A0549064801F015BA6B
:1047A00000000020F4010020C4720000000000009E
:1047B000C472000000000020034B1B680BB9FDF71A
:1047C0008DBB0020704700BF340B002030B503685C
:1047D00068B10A4A5268904209D043B1D3E9042132
:1047E000D0E90445121945EB0101C3E904214268EF
:1047F00013605A600023C0E9003330BD88000020F8
:1048000038B5134B1C689C4208BF0024FFF7D4FF47
:104810000546BCB1D4E90401401B61EBE5710128F8
:1048200071F1000311DB6FF000420023824273EB51
:10483000010400DA1046074B5B6913B19842A8BF28
:10484000184638BD6FF00040F5E70020F3E700BFE1
:1048500088000020F40A00202DE9F74F0191194645
:104860004B1C08BFB2F1FF3F824671D0541C6FF061
:10487000010341F100054FF0FF3BB3EB04086BEB84
:104880000509B8F1000F79F100030FDBFFF794FF82
:10489000364AD2E9001C6FF001035B1A6BEB0C0285
:1048A0001E1B62EB0507341A67EBE075019BCAF823
:1048B00008304FF02003EFF3118683F31188BFF324
:1048C0006F8FFFF779FF012C75F10003284BB8BFFC
:1048D00001241A68B8BF0025241845EBE0759A42F8
:1048E000CAE9044501D05F6852B95A68CAF8042081
:1048F0005A68CAF80030C2F800A0C3F804A014E057
:10490000D2E90489DAE90445444575EB090122DA64
:10491000B8EB040069EB0501C2E904015168CAE97A
:104920000021C1F800A0C2F804A01A689A420BD076
:10493000924509D1FFF764FF18B10E4B5B698342C2
:1049400002D00021FDF798FA86F31188BFF36F8F2C
:1049500003B0BDE8F08FB4EB080065EB0901BA4283
:10496000CAE90401C1D01268BEE700BF30040020CC
:1049700088000020F40A00202DE9F74F0646FFF7D3
:104980008FFB4FF02003EFF3118483F31188BFF303
:104990006F8F2C4DDFF8B0A0DFF8B0B02E6051461D
:1049A000D5F800C0DBF800006246D3175845DAE9B5
:1049B0000089CDE900230DD060B1D0E90467B4458A
:1049C000BB411EDA009BB6EB030C019B67EB0306B1
:1049D000C0E904C6009B13EB0802019B4FF00006E0
:1049E00043EB0903C1E900232E60FFF709FF3146BD
:1049F000FDF742FA84F31188BFF36F8F03B0BDE86F
:104A0000F08F18EB06084FF000024FF0000349EB5F
:104A1000E679C0E90423ACEB0606CAE900892E60FA
:104A2000FFF7D4FE84F31188BFF36F8F8368984734
:104A30004FF02003EFF3118483F31188BFF36F8FDE
:104A40000149ADE7340B002030040020880000202D
:104A500010B54FF02003EFF3118483F31188BFF3F7
:104A60006F8FFDF73BFA064BD3E90023121843F191
:104A7000000384F31188BFF36F8F1046194610BDF1
:104A800030040020F8B5D0E90A23561C43F1000792
:104A9000002F08BF022E044602D30C49FFF7DCFEAC
:104AA000236B01332363236A0BB12046984754F8E4
:104AB000185FA54208D03DB1284601F01EFB2846EC
:104AC00001F057FB0023EB67F8BD00BF854A0000EB
:104AD0002DE9734F194606464C1C104608BFB0F12D
:104AE000FF3FDDE90A238046894647D014461D462C
:104AF00054EA050316D06FF00103B3EB020A4FF03E
:104B0000FF3363EB050BBAF1000F7BF1000309DA09
:104B100012F1FF3445F1FF35012C75F10003BCBFE4
:104B2000012400256FF001031B1A00934FF0FF339F
:104B300063EB01030193DDE90023002A73F1000315
:104B40000CDA10F1FF3841F1FF39B8F1000F79F1BB
:104B50000003BCBF4FF000084FF00009304601F0E1
:104B600097FB00230749336342464B463046C6E96C
:104B70000A4502B0BDE8704FFFF76EBE02B0BDE857
:104B8000708F00BF854A000038B5064C064DAC4218
:104B900001D3002038BDD4E90112204601F0EAFB20
:104BA0001434F4E7940100209401002010B50A4C5D
:104BB00023681BB101232360002010BD00F0B6F86C
:104BC0000028F7D00138062803D8044B53F82000FA
:104BD00010BD034810BD00BF380B0020AC680000BA
:104BE000FE8FFFFFBFF34F8F0549064BCA6802F4E3
:104BF000E0621343CB60BFF34F8F00BFFDE700BF00
:104C000000ED00E00400FA05F0B4094F094E0A4C2B
:104C10000A4A0B4D0B494FF0FE333B60526833603C
:104C2000236000242B60C1F80045F0BC104700BF92
:104C300000B4025004B4025008B4025090000020A6
:104C40000CB4025000A00250D0E90012014BC3E99D
:104C5000001270479000002048B143682BB1BFF3A9
:104C60005F8F0023036018467047024870476FF457
:104C7000E0407047EA8FFFFF10B5044628B1636833
:104C800013B100232360636010BD024B02485B68D0
:104C90009847F4E790000020C868000010B504466B
:104CA00030B16368002243F001036360226010BDED
:104CB0000148FFF7A9FFF4E7F0680000A0B14368DE
:104CC00083B10122BFF35B8F50E8003F40E8002131
:104CD0000029F9D1BFF35B8F012BF3D0BFF35F8FB6
:104CE00000207047024870476FF4E040704700BFF3
:104CF000EA8FFFFF70B4D0E90065D0E90242094BAA
:104D0000C3E90242C3E90065D1E90240D1E9006587
:104D1000054B0A691A61C3E90065C3E9024070BC2A
:104D2000704700BFA0000020B000002010B500F0C8
:104D300033F820B1032400F067F8204610BD00F0DE
:104D400035F890B900F0B0F890B90F4B1B681B0E06
:104D5000F02B08D10D4A0E4B12689A420AD0072454
:104D600000F01CF8E7E70624FAE70424204610BD0B
:104D70000024F5E7012000F097F804460028F7D159
:104D8000044B1860D9E700BF28B9025024BA02507A
:104D90000000E0200CBA025000207047002070474D
:104DA000014B1860704700BF04BA025010B511489B
:104DB00000F048F800B110BD0F4800F043F800289B
:104DC000F9D10E4C204600F03DF80028F3D10C4BF1
:104DD0000C481C6000F036F801460028EBD100F0CA
:104DE0002DF8044608B1204610BD00F03FF82046DB
:104DF000FAE700BFE8000020DC000020E40000200B
:104E0000EC000020E000002008B5084800F024F87D
:104E1000074800F021F8074800F01EF8064800F0A7
:104E20001BF8BDE8084000F00BB800BFE800002008
:104E3000DC000020E4000020E0000020002070479B
:104E4000704700BF08B5034B02681B68106898479D
:104E5000002008BDA000002008B5034B02685B6875
:104E600010689847002008BDA000002070B5094CCC
:104E7000094D2069AB68984718B1084B08485B6832
:104E80009847084AEB68206900211160BDE870402E
:104E9000184700BFB0000020A000002090000020B4
:104EA000146900004C0B002070B51A4D1A4E0446D0
:104EB000B26828699047F0B95CB1184C2368ABB16F
:104EC000012B1AD0013B23602869F3689847002022
:104ED00070BD124C216839B9114B124A0120C3F838
:104EE00000051368002BFCD101312160F3682869AB
:104EF0009847002070BD0C4870BD0A4A1368002B0B
:104F0000FCD1074A6FF07E40C2F80035FFF748FF3A
:104F10002368D7E7B0000020A00000204C0B002041
:104F200000A0025010B90250E98FFFFF8368DB69CF
:104F300003B118477047002380F8003280F801322F
:104F400080F802327047034658B1426802F003020B
:104F5000012A03D0032A04D1026812B1002098600C
:104F600070476FF0150070474268816002F00302DD
:104F7000032A4FF0000203460CBF006810465A6037
:104F800070470020704730B58A680C68551C14B112
:104F90004B68934201DC8D6030BD013B934208BFFA
:104FA00000228D600CBFE254A054F5E70FB407B5A2
:104FB00004A951F8040B0191FBF7E0FA03B05DF886
:104FC00004EB04B070470CB407B504AB53F8042BE2
:104FD0000193FBF7E1FA03B05DF804EB02B0704710
:104FE000038B13F0070305D10368002B0CBF0020CF
:104FF00003207047022B05D1438B002B14BF0020E8
:1050000004207047012B05D10368002B0CBF002042
:1050100005207047002070472DE9F0410D460746F6
:105020001946281D90461E46FFF79EFF044638B1DC
:105030003346424629463846A446BDE8F04160471B
:10504000BDE8F08110B44FF02004EFF3118284F337
:105050001188BFF36F8F416110BC0121FBF7B0BA1B
:1050600010B50C4640B139B1081DFFF76CFF28B9E7
:10507000A36833F0030301D06FF0150010BD38B5FD
:105080000C46054658B151B10B6843B14B6833B17A
:105090001C22002100F0C4FD2C61002038BD6FF0FF
:1050A0001500FBE770B504460E46FFF7D9FF051E55
:1050B00031DB4FF02003EFF3118183F31188BFF34D
:1050C0006F8F638B208B4FF6FF75AB4200F00702AA
:1050D0002ED0022A0ED1013363831546012381F3BA
:1050E0001188BFF36F8FB3B1002331462046FFF71D
:1050F00093FF10E0830701D0062A0ED1002333600E
:10510000636893B9C4E90066154662B90A46204649
:105110000221FBF755FA284670BD052A0CBF6FF037
:1051200022056FF004050023D9E71E606660EBE7F7
:105130006FF00A05F7E7044608B5084611461A4617
:10514000A047FFF7F3F9FDF79BFB836800EBC10174
:10515000B3F5004F2CBF51F8220031F81200704710
:1051600000EBC1018068B0F5004F2CBF41F8223040
:1051700021F81230704708B50122FFF7E6FF40081A
:1051800008BD8368B3F5004F00EBC10108D34B683D
:105190001AB143F001034B60704723F00103FAE7B3
:1051A0004B881AB143F001034B80704723F0010391
:1051B000FAE753000122FFF7D3BF80680131B0F551
:1051C000004F2CBF02200120081AB0FA80F0C0F175
:1051D0001F0070472DE9F04104460D46FFF7CBFF55
:1051E000A368B3F5004F014601D3012835D020460E
:1051F000FFF7E3FF04EB800216699EB9012303FA6F
:1052000000F0E3680343E360294615612B46022260
:105210002046FFF7A5FF032229462046BDE8F041BE
:10522000FFF79EBF022231462046FFF78EFF022283
:105230000346074629462046FFF792FF33460322DE
:1052400029462046FFF78CFF032239462B4620468D
:10525000FFF786FF02223146DFE7BDE8F081B2F5B5
:10526000802FF8B52CBF08250425551BCC1D0D44F7
:1052700024F0070425F00705002200232D1B0460FD
:10528000ED08C4E9002300232946A560E360204619
:10529000FFF793FF86001B36411CF60804F110024D
:1052A00018468B4229DB324620460021FFF781FF5A
:1052B000AF1B204601220021FFF763FF3A4631462B
:1052C000FFF777FF3346314620460022FFF748FFBD
:1052D000294620460022FFF76CFF3B462946204620
:1052E0000022FFF73DFF294620460122FFF749FF34
:1052F0003146BDE8F840FFF76DBF42F8040B0133BB
:10530000CFE72DE9F74F9946D37814466F2BA3F1D9
:10531000410206460F4601922DD028D8582B14BFC3
:105320000A251025DDF83080AA464FF0000B5246C2
:105330005B4630463946FAF7E3FE092AD3B21FD856
:1053400030335F45DBB208BF564508F8013D01D355
:10535000C84512D823789B0605D5082D16D1A37809
:1053600043F00803A370404603B0BDE8F08F03F09C
:10537000F703702BD3E70825D4E706460F46D6E798
:10538000019A192A94BF37335733DAE7102DEAD13F
:10539000A37843F01003E5E72DE9F041074688467E
:1053A00015461E461446B442A4EB050002D33EB98E
:1053B00023782BB114F8010B4146B8470028F2DAE4
:1053C000BDE8F08170470023C0E9003370470368EF
:1053D00023B90160002341600B6070474368196086
:1053E000F8E7006870470346006808B102681A6071
:1053F000704708B5FCF74CF818B10123436000234F
:10540000038108BDFCF784BD00207047F0B5054658
:10541000002003460246012715F8014B0CB18B42D0
:1054200000D3F0BD252C02D182F00102F4E7002A5E
:10543000F2D044F02006613E192EEDD8732C04BF43
:1054400007FA03F2104301330022E5E738B50546B9
:105450000C46FFF7CEFF28B105612146BDE8384074
:10546000FBF730BF38BD70B506460D461446FFF752
:10547000C0FF58B1427A0661012161F307124272FE
:1054800045612146BDE87040FBF71CBF70BD2DE9AA
:10549000F04180460F4616461D46FFF7AAFF68B149
:1054A000437AC0F81080022262F307134372C0E906
:1054B00005762946BDE8F041FBF704BFBDE8F08161
:1054C0002DE9F8438046BDF820900F4616461D464C
:1054D000FFF78FFF70B1437AC0F81080032262F3A8
:1054E00007134372C0E90576C5614946BDE8F84334
:1054F000FBF7E8BEBDE8F88310B51C4600F0A1F844
:1055000020B12146BDE81040FBF7DCBE10BD2DE9FF
:10551000F8431C4603899DF820700E461146C3F3DC
:105520008D02A24203D800230B60BDE8F8830B680C
:105530002344934284BF131B0B600C2AD1F80090C4
:105540002AD9072CD0F814802DD8183008224A45C3
:1055500028BF4A461546204417B3314600F035FBB4
:10556000A9EB05092E44B9F1000FDED0B8F1000F08
:10557000DBD0C4F11C054D4528BF4D46201D4044DD
:105580002A46BFB1314600F020FBA9EB0509D8F847
:1055900000802E440024E6E714304FF00008D6E7E0
:1055A00001463046DAE7083C1B2CDCD9D8F80080ED
:1055B0001C3CF9E701463046E5E70430BFF35B8F5A
:1055C00050E8003F013340E80032002AF8D1BFF331
:1055D0005B8F7047407A00097047437AB1EB131F25
:1055E0004FEA131216D2032A03D800EB810148694F
:1055F0007047012903D800EB81018869704743692E
:105600000239062903D803EB8101486870471B68FB
:105610000739F6E7002070470346021DBFF35B8F92
:1056200052E8001F013942E8001CBCF1000FF7D11D
:10563000BFF35B8F5B680BB9FBF73EBF7047006938
:1056400070472DE9F84F814688461546FBF720FF45
:10565000044630B301230027032D4360078109D995
:1056600002220281A5F1020A00F1140B4761BAF18E
:10567000000F0EDC637AC4F8109065F30713032D56
:10568000637218D8AA00414604F1140000F09DFA94
:1056900007E0FBF7FDFE064630B92046FBF70CFF9E
:1056A00034462046BDE8F88FCBF80000AAF1070A7F
:1056B00007608346DBE74146082204F1180067696A
:1056C00000F083FA023D08F10808072D2E4628BF96
:1056D00007264FEA86094146381D4A4600F075FA0A
:1056E000AD1B3F68C844F0D1DBE713B5002400943C
:1056F000FFF70DFF02B010BDF8B506460D46144683
:105700001F46214628463A46B047241A0544F8D198
:10571000F8BD2DE9F0478EB00EAF80460D46FFF77D
:105720008EFF06464046FFF755FF8300073323F000
:105730000703ADEB030D82460EAC4FF00009D145D7
:1057400016D14046FFF746FF0F281ED8DFE810F0BD
:105750001900200026002D00360041004E005D009B
:105760006E0081009600AD00C600E100FE001D0144
:1057700049464046FFF731FF44F8290009F1010985
:10578000DDE731462846FBF7D5FEBD46BDE8F0878C
:10579000226831462846FBF7CDFEF6E7D4E9002320
:1057A00031462846FBF7C6FEEFE7A3680093D4E92D
:1057B000002331462846FBF7BDFEE6E7E368019388
:1057C000A3680093D4E9002331462846FBF7B2FED4
:1057D000DBE723690293E3680193A3680093D4E9AC
:1057E000002331462846FBF7A5FECEE76369039305
:1057F00023690293E3680193A3680093D4E900232B
:1058000031462846FBF796FEBFE7A3690493636918
:10581000039323690293E3680193A3680093D4E997
:10582000002331462846FBF785FEAEE7E369059382
:10583000A36904936369039323690293E368019363
:10584000A3680093D4E9002331462846FBF772FE93
:105850009BE7236A0693E3690593A369049363694D
:10586000039323690293E3680193A3680093D4E947
:10587000002331462846FBF75DFE86E7636A0793FF
:10588000236A0693E3690593A36904936369039309
:1058900023690293E3680193A3680093D4E900238A
:1058A00031462846FBF746FE6FE7A36A0893636A12
:1058B0000793236A0693E3690593A36904936369D5
:1058C000039323690293E3680193A3680093D4E9E7
:1058D000002331462846FBF72DFE56E7E36A09937D
:1058E000A36A0893636A0793236A0693E36905939F
:1058F000A36904936369039323690293E3680193A3
:10590000A3680093D4E9002331462846FBF712FE32
:105910003BE7236B0A93E36A0993A36A0893636ADC
:105920000793236A0693E3690593A3690493636964
:10593000039323690293E3680193A3680093D4E976
:10594000002331462846FBF7F5FD1EE7636B0B93FA
:10595000236B0A93E36A0993A36A0893636A079324
:10596000236A0693E3690593A36904936369039328
:1059700023690293E3680193A3680093D4E90023A9
:1059800031462846FBF7D6FDFFE6A36B0C93636B0D
:105990000B93236B0A93E36A0993A36A0893636AE0
:1059A0000793236A0693E3690593A36904936369E4
:1059B000039323690293E3680193A3680093D4E9F6
:1059C000002331462846FBF7B5FDDEE642688168D4
:1059D00010B50446D2E900230068FFF78DFE636826
:1059E00000221A6010BD38B54B681A68CB689A421D
:1059F00005460C4602D10846FFF7E8FF6368BFF38F
:105A00005B8F53E8002F511C43E800100028F8D1A9
:105A1000BFF35B8FA3689D54002038BDC268CBB232
:105A20000C2103FB0121086C00F0070070474FF0C8
:105A30002003EFF3118283F31188BFF36F8F0368A4
:105A400013F0C00301D08B4207D101230360002073
:105A500082F31188BFF36F8F70474FF0FF30F7E785
:105A600010B54FF02003EFF3118283F31188BFF3D9
:105A70006F8F036803F00704012C06D1016000203A
:105A800082F31188BFF36F8F10BD03F0C0038B4208
:105A900014BF4FF0FF306FF04400F1E74FF02003E8
:105AA000EFF3118283F31188BFF36F8F036803F064
:105AB000C00343F00203036082F31188BFF36F8FCA
:105AC0007047C06810B4CBB21C2403FB0400002153
:105AD00010BC10470020FDF77FBD0020FDF7AEBDD4
